:103800000C94341C0C94511C0C94511C0C94511CA1
:103810000C94511C0C94511C0C94511C0C94511C74
:103820000C94511C0C94511C0C94511C0C94511C64
:103830000C94511C0C94511C0C94511C0C94511C54
:103840000C94511C0C94511C0C94511C0C94511C44
:103850000C94511C0C94511C0C94511C0C94511C34
:103860000C94511C0C94511C11241FBECFEFD4E0BA
:10387000DEBFCDBF11E0A0E0B1E0E0EBFDE302C0B0
:1038800005900D92A230B107D9F722E0A2E0B1E095
:1038900001C01D92AD30B207E1F70E94FF1C0C94ED
:1038A000D61E0C94001C9091C00095FFFCCF809315
:1038B000C6000895CF93982F859585958595859514
:1038C000805D9F709A3014F0C7E501C0C0E3C90F56
:1038D0000E94531C8C2FCF910C94531CCF92DF92DB
:1038E000EF92FF92C12CD12C76018091C00087FD10
:1038F00012C08FEFC81AD80AE80AF80A81E0C81681
:1039000080E4D806E104F10480F3E0910201F09133
:1039100003010995EACF8091C600FF90EF90DF90F8
:10392000CF900895CF930E946E1CC82F0E94531C05
:10393000C13614F089EA03C0C0331CF080ED8C0F4F
:1039400001C08C2FCF910895CF930E94921CC82F55
:103950000E94921C90E1C99F800D1124CF9108957F
:10396000CF93C82FCC2321F00E946E1CC150FACFF8
:10397000CF910895CF93C82F0E946E1C803251F4CE
:1039800084E10E94531C8C2F0E94531C80E1CF9134
:103990000C94531C809104018F5F80930401853047
:1039A00031F4E0910201F0910301CF910994CF919C
:1039B00008950E946E1C803231F484E10E94531CF1
:1039C00080E10C94531C809104018F5F809304016B
:1039D000853029F4E0910201F091030109940895E2
:1039E000882361F02D9AE3E3F3E03197F1F72D9806
:1039F000E3E3F3E03197F1F78150F2CF089500004F
:103A0000E0E0F0E0E4918FEF8093C4008093C50084
:103A100088E18093C10086E08093C2005098589A54
:103A2000259A83E00E94F01CFF24F3940E946E1CF0
:103A3000803309F442C08133E1F40E946E1C80326D
:103A400009F0A6C184E10E94531C81E40E94531C2A
:103A500086E50E94531C82E50E94531C80E20E946E
:103A6000531C89E40E94531C83E50E94531C80E58B
:103A700086C1803439F40E946E1C8638F0F00E94B2
:103A80006E1C1BC08134A1F40E946E1C803811F49E
:103A900082E003C0813821F481E00E94BA1CC6CFC5
:103AA000823811F480E1F9CF8839C9F583E0F5CF88
:103AB000823431F484E10E94B01C0E94D91CB6CF3C
:103AC000853411F485E0F7CF982F9D7F9035A9F3C9
:103AD000813599F3853549F40E946E1C8093060167
:103AE0000E946E1C80930701E8CF8635D1F40E94B6
:103AF0006E1C803389F40E946E1C0E946E1C182F6D
:103B00000E946E1C111102C08EE1C7CF113011F45A
:103B100084E9C3CF86E0C1CF83E00E94B01C80E07F
:103B2000BCCF843609F0C6C00E946E1C8093090287
:103B30000E946E1C8093080280910C028E7F8093FD
:103B40000C020E946E1C853429F480910C02816065
:103B500080930C0208E011E02091080230910902E4
:103B6000C801885091408217930730F40E946E1C60
:103B7000F80181938F01F0CF0E946E1C803209F012
:103B800007C180910C02209106013091070180FF4E
:103B900029C0220F331F3093070120930601E8E06C
:103BA000F1E02091080230910902CF018850914044
:103BB0008217930708F07CC0F999FECF8091060127
:103BC0009091070192BD81BD819180BDFA9AF99AC9
:103BD00080910601909107010196909307018093CF
:103BE0000601DFCF80910701880F880B8F2180931A
:103BF0000B02220F331F309307012093060180919F
:103C0000080280FF09C08091080290910902019684
:103C10009093090280930802F894F999FECF112736
:103C2000E0910601F0910701C8E0D1E0809108021F
:103C300090910902103091F4009157000170013009
:103C4000D9F303E000935700E89500915700017005
:103C50000130D9F301E100935700E89509901990DC
:103C60000091570001700130D9F301E00093570033
:103C7000E8951395103498F01127009157000170C2
:103C80000130D9F305E000935700E8950091570003
:103C900001700130D9F301E100935700E8953296A5
:103CA000029709F0C7CF103011F00296E5CF11242A
:103CB00084E165C0843709F052C00E946E1C809375
:103CC00009020E946E1C8093080280910601909167
:103CD0000701880F991F90930701809306010E94A6
:103CE0006E1C90910C02853411F4916001C09E7F8E
:103CF00090930C020E946E1C803209F097CE84E1F2
:103D00000E94531C00E010E080910802909109028B
:103D100008171907B0F580910C0280FF0BC0F999C4
:103D2000FECF809106019091070192BD81BDF89A66
:103D300080B507C081FD07C0E0910601F091070141
:103D400084910E94531C8091060190910701019675
:103D500090930701809306010F5F1F4FD5CF8537E2
:103D6000A1F40E946E1C803299F484E10E94531CDD
:103D70008EE10E94531C84E90E94531C86E00E943D
:103D8000531C80E10E94531C51CE863709F4C7CEE4
:103D9000809104018F5F80930401853009F046CE45
:103DA000E0910201F0910301099540CEF894FFCF14
:023DB000800091
:0400000300003800C1
:00000001FF
